{
    "_format": "hh-sol-artifact-1",
    "contractName": "TimoNft",
    "sourceName": "contracts/NftMint.sol",
    "abi": [
        {
            "inputs": [],
            "stateMutability": "payable",
            "type": "constructor"
        },
        {
            "anonymous": false,
            "inputs": [
                {
                    "indexed": true,
                    "internalType": "address",
                    "name": "owner",
                    "type": "address"
                },
                {
                    "indexed": true,
                    "internalType": "address",
                    "name": "approved",
                    "type": "address"
                },
                {
                    "indexed": true,
                    "internalType": "uint256",
                    "name": "tokenId",
                    "type": "uint256"
                }
            ],
            "name": "Approval",
            "type": "event"
        },
        {
            "anonymous": false,
            "inputs": [
                {
                    "indexed": true,
                    "internalType": "address",
                    "name": "owner",
                    "type": "address"
                },
                {
                    "indexed": true,
                    "internalType": "address",
                    "name": "operator",
                    "type": "address"
                },
                {
                    "indexed": false,
                    "internalType": "bool",
                    "name": "approved",
                    "type": "bool"
                }
            ],
            "name": "ApprovalForAll",
            "type": "event"
        },
        {
            "anonymous": false,
            "inputs": [
                {
                    "indexed": true,
                    "internalType": "address",
                    "name": "previousOwner",
                    "type": "address"
                },
                {
                    "indexed": true,
                    "internalType": "address",
                    "name": "newOwner",
                    "type": "address"
                }
            ],
            "name": "OwnershipTransferred",
            "type": "event"
        },
        {
            "anonymous": false,
            "inputs": [
                {
                    "indexed": true,
                    "internalType": "address",
                    "name": "from",
                    "type": "address"
                },
                {
                    "indexed": true,
                    "internalType": "address",
                    "name": "to",
                    "type": "address"
                },
                {
                    "indexed": true,
                    "internalType": "uint256",
                    "name": "tokenId",
                    "type": "uint256"
                }
            ],
            "name": "Transfer",
            "type": "event"
        },
        {
            "inputs": [
                {
                    "internalType": "address",
                    "name": "to",
                    "type": "address"
                },
                {
                    "internalType": "uint256",
                    "name": "tokenId",
                    "type": "uint256"
                }
            ],
            "name": "approve",
            "outputs": [],
            "stateMutability": "nonpayable",
            "type": "function"
        },
        {
            "inputs": [
                {
                    "internalType": "address",
                    "name": "owner",
                    "type": "address"
                }
            ],
            "name": "balanceOf",
            "outputs": [
                {
                    "internalType": "uint256",
                    "name": "",
                    "type": "uint256"
                }
            ],
            "stateMutability": "view",
            "type": "function"
        },
        {
            "inputs": [],
            "name": "baseTokenUri",
            "outputs": [
                {
                    "internalType": "string",
                    "name": "",
                    "type": "string"
                }
            ],
            "stateMutability": "view",
            "type": "function"
        },
        {
            "inputs": [
                {
                    "internalType": "uint256",
                    "name": "tokenId",
                    "type": "uint256"
                }
            ],
            "name": "getApproved",
            "outputs": [
                {
                    "internalType": "address",
                    "name": "",
                    "type": "address"
                }
            ],
            "stateMutability": "view",
            "type": "function"
        },
        {
            "inputs": [
                {
                    "internalType": "address",
                    "name": "owner",
                    "type": "address"
                },
                {
                    "internalType": "address",
                    "name": "operator",
                    "type": "address"
                }
            ],
            "name": "isApprovedForAll",
            "outputs": [
                {
                    "internalType": "bool",
                    "name": "",
                    "type": "bool"
                }
            ],
            "stateMutability": "view",
            "type": "function"
        },
        {
            "inputs": [],
            "name": "isPublicMintEnabled",
            "outputs": [
                {
                    "internalType": "bool",
                    "name": "",
                    "type": "bool"
                }
            ],
            "stateMutability": "view",
            "type": "function"
        },
        {
            "inputs": [],
            "name": "maxPerWallet",
            "outputs": [
                {
                    "internalType": "uint256",
                    "name": "",
                    "type": "uint256"
                }
            ],
            "stateMutability": "view",
            "type": "function"
        },
        {
            "inputs": [],
            "name": "maxSupply",
            "outputs": [
                {
                    "internalType": "uint256",
                    "name": "",
                    "type": "uint256"
                }
            ],
            "stateMutability": "view",
            "type": "function"
        },
        {
            "inputs": [
                {
                    "internalType": "uint256",
                    "name": "quantity_",
                    "type": "uint256"
                }
            ],
            "name": "mint",
            "outputs": [],
            "stateMutability": "payable",
            "type": "function"
        },
        {
            "inputs": [],
            "name": "mintPrice",
            "outputs": [
                {
                    "internalType": "uint256",
                    "name": "",
                    "type": "uint256"
                }
            ],
            "stateMutability": "view",
            "type": "function"
        },
        {
            "inputs": [],
            "name": "name",
            "outputs": [
                {
                    "internalType": "string",
                    "name": "",
                    "type": "string"
                }
            ],
            "stateMutability": "view",
            "type": "function"
        },
        {
            "inputs": [],
            "name": "owner",
            "outputs": [
                {
                    "internalType": "address",
                    "name": "",
                    "type": "address"
                }
            ],
            "stateMutability": "view",
            "type": "function"
        },
        {
            "inputs": [
                {
                    "internalType": "uint256",
                    "name": "tokenId",
                    "type": "uint256"
                }
            ],
            "name": "ownerOf",
            "outputs": [
                {
                    "internalType": "address",
                    "name": "",
                    "type": "address"
                }
            ],
            "stateMutability": "view",
            "type": "function"
        },
        {
            "inputs": [],
            "name": "renounceOwnership",
            "outputs": [],
            "stateMutability": "nonpayable",
            "type": "function"
        },
        {
            "inputs": [
                {
                    "internalType": "address",
                    "name": "from",
                    "type": "address"
                },
                {
                    "internalType": "address",
                    "name": "to",
                    "type": "address"
                },
                {
                    "internalType": "uint256",
                    "name": "tokenId",
                    "type": "uint256"
                }
            ],
            "name": "safeTransferFrom",
            "outputs": [],
            "stateMutability": "nonpayable",
            "type": "function"
        },
        {
            "inputs": [
                {
                    "internalType": "address",
                    "name": "from",
                    "type": "address"
                },
                {
                    "internalType": "address",
                    "name": "to",
                    "type": "address"
                },
                {
                    "internalType": "uint256",
                    "name": "tokenId",
                    "type": "uint256"
                },
                {
                    "internalType": "bytes",
                    "name": "data",
                    "type": "bytes"
                }
            ],
            "name": "safeTransferFrom",
            "outputs": [],
            "stateMutability": "nonpayable",
            "type": "function"
        },
        {
            "inputs": [
                {
                    "internalType": "address",
                    "name": "operator",
                    "type": "address"
                },
                {
                    "internalType": "bool",
                    "name": "approved",
                    "type": "bool"
                }
            ],
            "name": "setApprovalForAll",
            "outputs": [],
            "stateMutability": "nonpayable",
            "type": "function"
        },
        {
            "inputs": [
                {
                    "internalType": "string",
                    "name": "baseTokenUri_",
                    "type": "string"
                }
            ],
            "name": "setBaseTokenUri",
            "outputs": [],
            "stateMutability": "nonpayable",
            "type": "function"
        },
        {
            "inputs": [
                {
                    "internalType": "bool",
                    "name": "isPublicMintEnabled_",
                    "type": "bool"
                }
            ],
            "name": "setIsPublicMintEnabled",
            "outputs": [],
            "stateMutability": "nonpayable",
            "type": "function"
        },
        {
            "inputs": [
                {
                    "internalType": "bytes4",
                    "name": "interfaceId",
                    "type": "bytes4"
                }
            ],
            "name": "supportsInterface",
            "outputs": [
                {
                    "internalType": "bool",
                    "name": "",
                    "type": "bool"
                }
            ],
            "stateMutability": "view",
            "type": "function"
        },
        {
            "inputs": [],
            "name": "symbol",
            "outputs": [
                {
                    "internalType": "string",
                    "name": "",
                    "type": "string"
                }
            ],
            "stateMutability": "view",
            "type": "function"
        },
        {
            "inputs": [
                {
                    "internalType": "uint256",
                    "name": "tokenId_",
                    "type": "uint256"
                }
            ],
            "name": "tokenURI",
            "outputs": [
                {
                    "internalType": "string",
                    "name": "",
                    "type": "string"
                }
            ],
            "stateMutability": "view",
            "type": "function"
        },
        {
            "inputs": [],
            "name": "totalSupply",
            "outputs": [
                {
                    "internalType": "uint256",
                    "name": "",
                    "type": "uint256"
                }
            ],
            "stateMutability": "view",
            "type": "function"
        },
        {
            "inputs": [
                {
                    "internalType": "address",
                    "name": "from",
                    "type": "address"
                },
                {
                    "internalType": "address",
                    "name": "to",
                    "type": "address"
                },
                {
                    "internalType": "uint256",
                    "name": "tokenId",
                    "type": "uint256"
                }
            ],
            "name": "transferFrom",
            "outputs": [],
            "stateMutability": "nonpayable",
            "type": "function"
        },
        {
            "inputs": [
                {
                    "internalType": "address",
                    "name": "newOwner",
                    "type": "address"
                }
            ],
            "name": "transferOwnership",
            "outputs": [],
            "stateMutability": "nonpayable",
            "type": "function"
        },
        {
            "inputs": [
                {
                    "internalType": "address",
                    "name": "",
                    "type": "address"
                }
            ],
            "name": "walletMints",
            "outputs": [
                {
                    "internalType": "uint256",
                    "name": "",
                    "type": "uint256"
                }
            ],
            "stateMutability": "view",
            "type": "function"
        },
        {
            "inputs": [],
            "name": "withdraw",
            "outputs": [],
            "stateMutability": "nonpayable",
            "type": "function"
        },
        {
            "inputs": [],
            "name": "withdrawWallet",
            "outputs": [
                {
                    "internalType": "address payable",
                    "name": "",
                    "type": "address"
                }
            ],
            "stateMutability": "view",
            "type": "function"
        }
    ],
    "bytecode": "0x608060405260405180606001604052806036815260200162003b1b60369139600c9080519060200190620000359291906200037a565b506040518060400160405280600781526020017f54696d6f4e6674000000000000000000000000000000000000000000000000008152506040518060400160405280600281526020017f544e0000000000000000000000000000000000000000000000000000000000008152508160009080519060200190620000ba9291906200037a565b508060019080519060200190620000d39291906200037a565b505050620000f6620000ea620001c560201b60201c565b620001cd60201b60201c565b66470de4df820000600781905550600060088190555060146009819055506002600a81905550620001bf600c80546200012f9062000484565b80601f01602080910402602001604051908101604052809291908181526020018280546200015d9062000484565b8015620001ae5780601f106200018257610100808354040283529160200191620001ae565b820191906000526020600020905b8154815290600101906020018083116200019057829003601f168201915b50505050506200029360201b60201c565b62000512565b600033905090565b6000600660009054906101000a900473ffffffffffffffffffffffffffffffffffffffff16905081600660006101000a81548173ffffffffffffffffffffffffffffffffffffffff021916908373ffffffffffffffffffffffffffffffffffffffff1602179055508173ffffffffffffffffffffffffffffffffffffffff168173ffffffffffffffffffffffffffffffffffffffff167f8be0079c531659141344cd1fd0a4f28419497f9722a3daafe3b4186f6b6457e060405160405180910390a35050565b620002a3620002bf60201b60201c565b80600c9080519060200190620002bb9291906200037a565b5050565b620002cf620001c560201b60201c565b73ffffffffffffffffffffffffffffffffffffffff16620002f56200035060201b60201c565b73ffffffffffffffffffffffffffffffffffffffff16146200034e576040517f08c379a0000000000000000000000000000000000000000000000000000000008152600401620003459062000451565b60405180910390fd5b565b6000600660009054906101000a900473ffffffffffffffffffffffffffffffffffffffff16905090565b828054620003889062000484565b90600052602060002090601f016020900481019282620003ac5760008555620003f8565b82601f10620003c757805160ff1916838001178555620003f8565b82800160010185558215620003f8579182015b82811115620003f7578251825591602001919060010190620003da565b5b5090506200040791906200040b565b5090565b5b80821115620004265760008160009055506001016200040c565b5090565b60006200043960208362000473565b91506200044682620004e9565b602082019050919050565b600060208201905081810360008301526200046c816200042a565b9050919050565b600082825260208201905092915050565b600060028204905060018216806200049d57607f821691505b60208210811415620004b457620004b3620004ba565b5b50919050565b7f4e487b7100000000000000000000000000000000000000000000000000000000600052602260045260246000fd5b7f4f776e61626c653a2063616c6c6572206973206e6f7420746865206f776e6572600082015250565b6135f980620005226000396000f3fe6080604052600436106101b75760003560e01c8063715018a6116100ec578063a22cb4651161008a578063d5abeb0111610064578063d5abeb01146105d9578063e985e9c514610604578063f0293fd314610641578063f2fde38b1461067e576101b7565b8063a22cb4651461054a578063b88d4fde14610573578063c87b56dd1461059c576101b7565b80638da5cb5b116100c65780638da5cb5b146104af57806395652cfa146104da57806395d89b4114610503578063a0712d681461052e576101b7565b8063715018a6146104425780637a0101a21461045957806385d178f414610484576101b7565b806323b872dd11610159578063453c231011610133578063453c2310146103725780636352211e1461039d5780636817c76c146103da57806370a0823114610405576101b7565b806323b872dd146103095780633ccfd60b1461033257806342842e0e14610349576101b7565b8063081812fc11610195578063081812fc1461024f578063095ea7b31461028c57806318160ddd146102b55780632373ac22146102e0576101b7565b80630116bc2d146101bc57806301ffc9a7146101e757806306fdde0314610224575b600080fd5b3480156101c857600080fd5b506101d16106a7565b6040516101de9190612994565b60405180910390f35b3480156101f357600080fd5b5061020e600480360381019061020991906123c1565b6106ba565b60405161021b9190612994565b60405180910390f35b34801561023057600080fd5b5061023961079c565b60405161024691906129af565b60405180910390f35b34801561025b57600080fd5b5061027660048036038101906102719190612464565b61082e565b6040516102839190612912565b60405180910390f35b34801561029857600080fd5b506102b360048036038101906102ae9190612354565b610874565b005b3480156102c157600080fd5b506102ca61098c565b6040516102d79190612c31565b60405180910390f35b3480156102ec57600080fd5b5061030760048036038101906103029190612394565b610992565b005b34801561031557600080fd5b50610330600480360381019061032b919061223e565b6109b7565b005b34801561033e57600080fd5b50610347610a17565b005b34801561035557600080fd5b50610370600480360381019061036b919061223e565b610af0565b005b34801561037e57600080fd5b50610387610b10565b6040516103949190612c31565b60405180910390f35b3480156103a957600080fd5b506103c460048036038101906103bf9190612464565b610b16565b6040516103d19190612912565b60405180910390f35b3480156103e657600080fd5b506103ef610bc8565b6040516103fc9190612c31565b60405180910390f35b34801561041157600080fd5b5061042c600480360381019061042791906121d1565b610bce565b6040516104399190612c31565b60405180910390f35b34801561044e57600080fd5b50610457610c86565b005b34801561046557600080fd5b5061046e610c9a565b60405161047b91906129af565b60405180910390f35b34801561049057600080fd5b50610499610d28565b6040516104a6919061292d565b60405180910390f35b3480156104bb57600080fd5b506104c4610d4e565b6040516104d19190612912565b60405180910390f35b3480156104e657600080fd5b5061050160048036038101906104fc919061241b565b610d78565b005b34801561050f57600080fd5b50610518610d9a565b60405161052591906129af565b60405180910390f35b61054860048036038101906105439190612464565b610e2c565b005b34801561055657600080fd5b50610571600480360381019061056c9190612314565b611058565b005b34801561057f57600080fd5b5061059a60048036038101906105959190612291565b61106e565b005b3480156105a857600080fd5b506105c360048036038101906105be9190612464565b6110d0565b6040516105d091906129af565b60405180910390f35b3480156105e557600080fd5b506105ee61114c565b6040516105fb9190612c31565b60405180910390f35b34801561061057600080fd5b5061062b600480360381019061062691906121fe565b611152565b6040516106389190612994565b60405180910390f35b34801561064d57600080fd5b50610668600480360381019061066391906121d1565b6111e6565b6040516106759190612c31565b60405180910390f35b34801561068a57600080fd5b506106a560048036038101906106a091906121d1565b6111fe565b005b600b60009054906101000a900460ff1681565b60007f80ac58cd000000000000000000000000000000000000000000000000000000007bffffffffffffffffffffffffffffffffffffffffffffffffffffffff1916827bffffffffffffffffffffffffffffffffffffffffffffffffffffffff1916148061078557507f5b5e139f000000000000000000000000000000000000000000000000000000007bffffffffffffffffffffffffffffffffffffffffffffffffffffffff1916827bffffffffffffffffffffffffffffffffffffffffffffffffffffffff1916145b80610795575061079482611282565b5b9050919050565b6060600080546107ab90612f13565b80601f01602080910402602001604051908101604052809291908181526020018280546107d790612f13565b80156108245780601f106107f957610100808354040283529160200191610824565b820191906000526020600020905b81548152906001019060200180831161080757829003601f168201915b5050505050905090565b6000610839826112ec565b6004600083815260200190815260200160002060009054906101000a900473ffffffffffffffffffffffffffffffffffffffff169050919050565b600061087f82610b16565b90508073ffffffffffffffffffffffffffffffffffffffff168373ffffffffffffffffffffffffffffffffffffffff1614156108f0576040517f08c379a00000000000000000000000000000000000000000000000000000000081526004016108e790612bb1565b60405180910390fd5b8073ffffffffffffffffffffffffffffffffffffffff1661090f611337565b73ffffffffffffffffffffffffffffffffffffffff16148061093e575061093d81610938611337565b611152565b5b61097d576040517f08c379a000000000000000000000000000000000000000000000000000000000815260040161097490612b11565b60405180910390fd5b610987838361133f565b505050565b60085481565b61099a6113f8565b80600b60006101000a81548160ff02191690831515021790555050565b6109c86109c2611337565b82611476565b610a07576040517f08c379a00000000000000000000000000000000000000000000000000000000081526004016109fe90612bf1565b60405180910390fd5b610a1283838361150b565b505050565b610a1f6113f8565b6000600d60009054906101000a900473ffffffffffffffffffffffffffffffffffffffff1673ffffffffffffffffffffffffffffffffffffffff1647604051610a67906128fd565b60006040518083038185875af1925050503d8060008114610aa4576040519150601f19603f3d011682016040523d82523d6000602084013e610aa9565b606091505b5050905080610aed576040517f08c379a0000000000000000000000000000000000000000000000000000000008152600401610ae490612c11565b60405180910390fd5b50565b610b0b8383836040518060200160405280600081525061106e565b505050565b600a5481565b6000806002600084815260200190815260200160002060009054906101000a900473ffffffffffffffffffffffffffffffffffffffff169050600073ffffffffffffffffffffffffffffffffffffffff168173ffffffffffffffffffffffffffffffffffffffff161415610bbf576040517f08c379a0000000000000000000000000000000000000000000000000000000008152600401610bb690612b91565b60405180910390fd5b80915050919050565b60075481565b60008073ffffffffffffffffffffffffffffffffffffffff168273ffffffffffffffffffffffffffffffffffffffff161415610c3f576040517f08c379a0000000000000000000000000000000000000000000000000000000008152600401610c3690612af1565b60405180910390fd5b600360008373ffffffffffffffffffffffffffffffffffffffff1673ffffffffffffffffffffffffffffffffffffffff168152602001908152602001600020549050919050565b610c8e6113f8565b610c986000611772565b565b600c8054610ca790612f13565b80601f0160208091040260200160405190810160405280929190818152602001828054610cd390612f13565b8015610d205780601f10610cf557610100808354040283529160200191610d20565b820191906000526020600020905b815481529060010190602001808311610d0357829003601f168201915b505050505081565b600d60009054906101000a900473ffffffffffffffffffffffffffffffffffffffff1681565b6000600660009054906101000a900473ffffffffffffffffffffffffffffffffffffffff16905090565b610d806113f8565b80600c9080519060200190610d96929190611fe5565b5050565b606060018054610da990612f13565b80601f0160208091040260200160405190810160405280929190818152602001828054610dd590612f13565b8015610e225780601f10610df757610100808354040283529160200191610e22565b820191906000526020600020905b815481529060010190602001808311610e0557829003601f168201915b5050505050905090565b600b60009054906101000a900460ff16610e7b576040517f08c379a0000000000000000000000000000000000000000000000000000000008152600401610e7290612a11565b60405180910390fd5b60075481610e899190612dbd565b3414610eca576040517f08c379a0000000000000000000000000000000000000000000000000000000008152600401610ec1906129d1565b60405180910390fd5b60095481600854610edb9190612d36565b1115610f1c576040517f08c379a0000000000000000000000000000000000000000000000000000000008152600401610f1390612ad1565b60405180910390fd5b600a5481600e60003373ffffffffffffffffffffffffffffffffffffffff1673ffffffffffffffffffffffffffffffffffffffff16815260200190815260200160002054610f6a9190612d36565b1115610fab576040517f08c379a0000000000000000000000000000000000000000000000000000000008152600401610fa290612b51565b60405180910390fd5b60005b818110156110545760006001600854610fc79190612d36565b905060086000815480929190610fdc90612f76565b9190505550600e60003373ffffffffffffffffffffffffffffffffffffffff1673ffffffffffffffffffffffffffffffffffffffff168152602001908152602001600020600081548092919061103190612f76565b91905055506110403382611838565b50808061104c90612f76565b915050610fae565b5050565b61106a611063611337565b8383611856565b5050565b61107f611079611337565b83611476565b6110be576040517f08c379a00000000000000000000000000000000000000000000000000000000081526004016110b590612bf1565b60405180910390fd5b6110ca848484846119c3565b50505050565b60606110db82611a1f565b61111a576040517f08c379a000000000000000000000000000000000000000000000000000000000815260040161111190612bd1565b60405180910390fd5b600c61112583611a8b565b6040516020016111369291906128ce565b6040516020818303038152906040529050919050565b60095481565b6000600560008473ffffffffffffffffffffffffffffffffffffffff1673ffffffffffffffffffffffffffffffffffffffff16815260200190815260200160002060008373ffffffffffffffffffffffffffffffffffffffff1673ffffffffffffffffffffffffffffffffffffffff16815260200190815260200160002060009054906101000a900460ff16905092915050565b600e6020528060005260406000206000915090505481565b6112066113f8565b600073ffffffffffffffffffffffffffffffffffffffff168173ffffffffffffffffffffffffffffffffffffffff161415611276576040517f08c379a000000000000000000000000000000000000000000000000000000000815260040161126d90612a31565b60405180910390fd5b61127f81611772565b50565b60007f01ffc9a7000000000000000000000000000000000000000000000000000000007bffffffffffffffffffffffffffffffffffffffffffffffffffffffff1916827bffffffffffffffffffffffffffffffffffffffffffffffffffffffff1916149050919050565b6112f581611a1f565b611334576040517f08c379a000000000000000000000000000000000000000000000000000000000815260040161132b90612b91565b60405180910390fd5b50565b600033905090565b816004600083815260200190815260200160002060006101000a81548173ffffffffffffffffffffffffffffffffffffffff021916908373ffffffffffffffffffffffffffffffffffffffff160217905550808273ffffffffffffffffffffffffffffffffffffffff166113b283610b16565b73ffffffffffffffffffffffffffffffffffffffff167f8c5be1e5ebec7d5bd14f71427d1e84f3dd0314c0f7b2291e5b200ac8c7c3b92560405160405180910390a45050565b611400611337565b73ffffffffffffffffffffffffffffffffffffffff1661141e610d4e565b73ffffffffffffffffffffffffffffffffffffffff1614611474576040517f08c379a000000000000000000000000000000000000000000000000000000000815260040161146b90612b71565b60405180910390fd5b565b60008061148283610b16565b90508073ffffffffffffffffffffffffffffffffffffffff168473ffffffffffffffffffffffffffffffffffffffff1614806114c457506114c38185611152565b5b8061150257508373ffffffffffffffffffffffffffffffffffffffff166114ea8461082e565b73ffffffffffffffffffffffffffffffffffffffff16145b91505092915050565b8273ffffffffffffffffffffffffffffffffffffffff1661152b82610b16565b73ffffffffffffffffffffffffffffffffffffffff1614611581576040517f08c379a000000000000000000000000000000000000000000000000000000000815260040161157890612a51565b60405180910390fd5b600073ffffffffffffffffffffffffffffffffffffffff168273ffffffffffffffffffffffffffffffffffffffff1614156115f1576040517f08c379a00000000000000000000000000000000000000000000000000000000081526004016115e890612a91565b60405180910390fd5b6115fc838383611bec565b61160760008261133f565b6001600360008573ffffffffffffffffffffffffffffffffffffffff1673ffffffffffffffffffffffffffffffffffffffff16815260200190815260200160002060008282546116579190612e17565b925050819055506001600360008473ffffffffffffffffffffffffffffffffffffffff1673ffffffffffffffffffffffffffffffffffffffff16815260200190815260200160002060008282546116ae9190612d36565b92505081905550816002600083815260200190815260200160002060006101000a81548173ffffffffffffffffffffffffffffffffffffffff021916908373ffffffffffffffffffffffffffffffffffffffff160217905550808273ffffffffffffffffffffffffffffffffffffffff168473ffffffffffffffffffffffffffffffffffffffff167fddf252ad1be2c89b69c2b068fc378daa952ba7f163c4a11628f55a4df523b3ef60405160405180910390a461176d838383611bf1565b505050565b6000600660009054906101000a900473ffffffffffffffffffffffffffffffffffffffff16905081600660006101000a81548173ffffffffffffffffffffffffffffffffffffffff021916908373ffffffffffffffffffffffffffffffffffffffff1602179055508173ffffffffffffffffffffffffffffffffffffffff168173ffffffffffffffffffffffffffffffffffffffff167f8be0079c531659141344cd1fd0a4f28419497f9722a3daafe3b4186f6b6457e060405160405180910390a35050565b611852828260405180602001604052806000815250611bf6565b5050565b8173ffffffffffffffffffffffffffffffffffffffff168373ffffffffffffffffffffffffffffffffffffffff1614156118c5576040517f08c379a00000000000000000000000000000000000000000000000000000000081526004016118bc90612ab1565b60405180910390fd5b80600560008573ffffffffffffffffffffffffffffffffffffffff1673ffffffffffffffffffffffffffffffffffffffff16815260200190815260200160002060008473ffffffffffffffffffffffffffffffffffffffff1673ffffffffffffffffffffffffffffffffffffffff16815260200190815260200160002060006101000a81548160ff0219169083151502179055508173ffffffffffffffffffffffffffffffffffffffff168373ffffffffffffffffffffffffffffffffffffffff167f17307eab39ab6107e8899845ad3d59bd9653f200f220920489ca2b5937696c31836040516119b69190612994565b60405180910390a3505050565b6119ce84848461150b565b6119da84848484611c51565b611a19576040517f08c379a0000000000000000000000000000000000000000000000000000000008152600401611a10906129f1565b60405180910390fd5b50505050565b60008073ffffffffffffffffffffffffffffffffffffffff166002600084815260200190815260200160002060009054906101000a900473ffffffffffffffffffffffffffffffffffffffff1673ffffffffffffffffffffffffffffffffffffffff1614159050919050565b60606000821415611ad3576040518060400160405280600181526020017f30000000000000000000000000000000000000000000000000000000000000008152509050611be7565b600082905060005b60008214611b05578080611aee90612f76565b915050600a82611afe9190612d8c565b9150611adb565b60008167ffffffffffffffff811115611b2157611b206130ac565b5b6040519080825280601f01601f191660200182016040528015611b535781602001600182028036833780820191505090505b5090505b60008514611be057600182611b6c9190612e17565b9150600a85611b7b9190612fbf565b6030611b879190612d36565b60f81b818381518110611b9d57611b9c61307d565b5b60200101907effffffffffffffffffffffffffffffffffffffffffffffffffffffffffffff1916908160001a905350600a85611bd99190612d8c565b9450611b57565b8093505050505b919050565b505050565b505050565b611c008383611de8565b611c0d6000848484611c51565b611c4c576040517f08c379a0000000000000000000000000000000000000000000000000000000008152600401611c43906129f1565b60405180910390fd5b505050565b6000611c728473ffffffffffffffffffffffffffffffffffffffff16611fc2565b15611ddb578373ffffffffffffffffffffffffffffffffffffffff1663150b7a02611c9b611337565b8786866040518563ffffffff1660e01b8152600401611cbd9493929190612948565b602060405180830381600087803b158015611cd757600080fd5b505af1925050508015611d0857506040513d601f19601f82011682018060405250810190611d0591906123ee565b60015b611d8b573d8060008114611d38576040519150601f19603f3d011682016040523d82523d6000602084013e611d3d565b606091505b50600081511415611d83576040517f08c379a0000000000000000000000000000000000000000000000000000000008152600401611d7a906129f1565b60405180910390fd5b805181602001fd5b63150b7a0260e01b7bffffffffffffffffffffffffffffffffffffffffffffffffffffffff1916817bffffffffffffffffffffffffffffffffffffffffffffffffffffffff191614915050611de0565b600190505b949350505050565b600073ffffffffffffffffffffffffffffffffffffffff168273ffffffffffffffffffffffffffffffffffffffff161415611e58576040517f08c379a0000000000000000000000000000000000000000000000000000000008152600401611e4f90612b31565b60405180910390fd5b611e6181611a1f565b15611ea1576040517f08c379a0000000000000000000000000000000000000000000000000000000008152600401611e9890612a71565b60405180910390fd5b611ead60008383611bec565b6001600360008473ffffffffffffffffffffffffffffffffffffffff1673ffffffffffffffffffffffffffffffffffffffff1681526020019081526020016000206000828254611efd9190612d36565b92505081905550816002600083815260200190815260200160002060006101000a81548173ffffffffffffffffffffffffffffffffffffffff021916908373ffffffffffffffffffffffffffffffffffffffff160217905550808273ffffffffffffffffffffffffffffffffffffffff16600073ffffffffffffffffffffffffffffffffffffffff167fddf252ad1be2c89b69c2b068fc378daa952ba7f163c4a11628f55a4df523b3ef60405160405180910390a4611fbe60008383611bf1565b5050565b6000808273ffffffffffffffffffffffffffffffffffffffff163b119050919050565b828054611ff190612f13565b90600052602060002090601f016020900481019282612013576000855561205a565b82601f1061202c57805160ff191683800117855561205a565b8280016001018555821561205a579182015b8281111561205957825182559160200191906001019061203e565b5b509050612067919061206b565b5090565b5b8082111561208457600081600090555060010161206c565b5090565b600061209b61209684612c71565b612c4c565b9050828152602081018484840111156120b7576120b66130e0565b5b6120c2848285612ed1565b509392505050565b60006120dd6120d884612ca2565b612c4c565b9050828152602081018484840111156120f9576120f86130e0565b5b612104848285612ed1565b509392505050565b60008135905061211b81613567565b92915050565b6000813590506121308161357e565b92915050565b60008135905061214581613595565b92915050565b60008151905061215a81613595565b92915050565b600082601f830112612175576121746130db565b5b8135612185848260208601612088565b91505092915050565b600082601f8301126121a3576121a26130db565b5b81356121b38482602086016120ca565b91505092915050565b6000813590506121cb816135ac565b92915050565b6000602082840312156121e7576121e66130ea565b5b60006121f58482850161210c565b91505092915050565b60008060408385031215612215576122146130ea565b5b60006122238582860161210c565b92505060206122348582860161210c565b9150509250929050565b600080600060608486031215612257576122566130ea565b5b60006122658682870161210c565b93505060206122768682870161210c565b9250506040612287868287016121bc565b9150509250925092565b600080600080608085870312156122ab576122aa6130ea565b5b60006122b98782880161210c565b94505060206122ca8782880161210c565b93505060406122db878288016121bc565b925050606085013567ffffffffffffffff8111156122fc576122fb6130e5565b5b61230887828801612160565b91505092959194509250565b6000806040838503121561232b5761232a6130ea565b5b60006123398582860161210c565b925050602061234a85828601612121565b9150509250929050565b6000806040838503121561236b5761236a6130ea565b5b60006123798582860161210c565b925050602061238a858286016121bc565b9150509250929050565b6000602082840312156123aa576123a96130ea565b5b60006123b884828501612121565b91505092915050565b6000602082840312156123d7576123d66130ea565b5b60006123e584828501612136565b91505092915050565b600060208284031215612404576124036130ea565b5b60006124128482850161214b565b91505092915050565b600060208284031215612431576124306130ea565b5b600082013567ffffffffffffffff81111561244f5761244e6130e5565b5b61245b8482850161218e565b91505092915050565b60006020828403121561247a576124796130ea565b5b6000612488848285016121bc565b91505092915050565b61249a81612e5d565b82525050565b6124a981612e4b565b82525050565b6124b881612e6f565b82525050565b60006124c982612ce8565b6124d38185612cfe565b93506124e3818560208601612ee0565b6124ec816130ef565b840191505092915050565b600061250282612cf3565b61250c8185612d1a565b935061251c818560208601612ee0565b612525816130ef565b840191505092915050565b600061253b82612cf3565b6125458185612d2b565b9350612555818560208601612ee0565b80840191505092915050565b6000815461256e81612f13565b6125788186612d2b565b9450600182166000811461259357600181146125a4576125d7565b60ff198316865281860193506125d7565b6125ad85612cd3565b60005b838110156125cf578154818901526001820191506020810190506125b0565b838801955050505b50505092915050565b60006125ed601083612d1a565b91506125f882613100565b602082019050919050565b6000612610603283612d1a565b915061261b82613129565b604082019050919050565b6000612633601383612d1a565b915061263e82613178565b602082019050919050565b6000612656602683612d1a565b9150612661826131a1565b604082019050919050565b6000612679602583612d1a565b9150612684826131f0565b604082019050919050565b600061269c601c83612d1a565b91506126a78261323f565b602082019050919050565b60006126bf602483612d1a565b91506126ca82613268565b604082019050919050565b60006126e2601983612d1a565b91506126ed826132b7565b602082019050919050565b6000612705600883612d1a565b9150612710826132e0565b602082019050919050565b6000612728602983612d1a565b915061273382613309565b604082019050919050565b600061274b603e83612d1a565b915061275682613358565b604082019050919050565b600061276e602083612d1a565b9150612779826133a7565b602082019050919050565b6000612791600583612d2b565b915061279c826133d0565b600582019050919050565b60006127b4601183612d1a565b91506127bf826133f9565b602082019050919050565b60006127d7602083612d1a565b91506127e282613422565b602082019050919050565b60006127fa601883612d1a565b91506128058261344b565b602082019050919050565b600061281d602183612d1a565b915061282882613474565b604082019050919050565b6000612840600083612d0f565b915061284b826134c3565b600082019050919050565b6000612863601483612d1a565b915061286e826134c6565b602082019050919050565b6000612886602e83612d1a565b9150612891826134ef565b604082019050919050565b60006128a9600f83612d1a565b91506128b48261353e565b602082019050919050565b6128c881612ec7565b82525050565b60006128da8285612561565b91506128e68284612530565b91506128f182612784565b91508190509392505050565b600061290882612833565b9150819050919050565b600060208201905061292760008301846124a0565b92915050565b60006020820190506129426000830184612491565b92915050565b600060808201905061295d60008301876124a0565b61296a60208301866124a0565b61297760408301856128bf565b818103606083015261298981846124be565b905095945050505050565b60006020820190506129a960008301846124af565b92915050565b600060208201905081810360008301526129c981846124f7565b905092915050565b600060208201905081810360008301526129ea816125e0565b9050919050565b60006020820190508181036000830152612a0a81612603565b9050919050565b60006020820190508181036000830152612a2a81612626565b9050919050565b60006020820190508181036000830152612a4a81612649565b9050919050565b60006020820190508181036000830152612a6a8161266c565b9050919050565b60006020820190508181036000830152612a8a8161268f565b9050919050565b60006020820190508181036000830152612aaa816126b2565b9050919050565b60006020820190508181036000830152612aca816126d5565b9050919050565b60006020820190508181036000830152612aea816126f8565b9050919050565b60006020820190508181036000830152612b0a8161271b565b9050919050565b60006020820190508181036000830152612b2a8161273e565b9050919050565b60006020820190508181036000830152612b4a81612761565b9050919050565b60006020820190508181036000830152612b6a816127a7565b9050919050565b60006020820190508181036000830152612b8a816127ca565b9050919050565b60006020820190508181036000830152612baa816127ed565b9050919050565b60006020820190508181036000830152612bca81612810565b9050919050565b60006020820190508181036000830152612bea81612856565b9050919050565b60006020820190508181036000830152612c0a81612879565b9050919050565b60006020820190508181036000830152612c2a8161289c565b9050919050565b6000602082019050612c4660008301846128bf565b92915050565b6000612c56612c67565b9050612c628282612f45565b919050565b6000604051905090565b600067ffffffffffffffff821115612c8c57612c8b6130ac565b5b612c95826130ef565b9050602081019050919050565b600067ffffffffffffffff821115612cbd57612cbc6130ac565b5b612cc6826130ef565b9050602081019050919050565b60008190508160005260206000209050919050565b600081519050919050565b600081519050919050565b600082825260208201905092915050565b600081905092915050565b600082825260208201905092915050565b600081905092915050565b6000612d4182612ec7565b9150612d4c83612ec7565b9250827fffffffffffffffffffffffffffffffffffffffffffffffffffffffffffffffff03821115612d8157612d80612ff0565b5b828201905092915050565b6000612d9782612ec7565b9150612da283612ec7565b925082612db257612db161301f565b5b828204905092915050565b6000612dc882612ec7565b9150612dd383612ec7565b9250817fffffffffffffffffffffffffffffffffffffffffffffffffffffffffffffffff0483118215151615612e0c57612e0b612ff0565b5b828202905092915050565b6000612e2282612ec7565b9150612e2d83612ec7565b925082821015612e4057612e3f612ff0565b5b828203905092915050565b6000612e5682612ea7565b9050919050565b6000612e6882612ea7565b9050919050565b60008115159050919050565b60007fffffffff0000000000000000000000000000000000000000000000000000000082169050919050565b600073ffffffffffffffffffffffffffffffffffffffff82169050919050565b6000819050919050565b82818337600083830152505050565b60005b83811015612efe578082015181840152602081019050612ee3565b83811115612f0d576000848401525b50505050565b60006002820490506001821680612f2b57607f821691505b60208210811415612f3f57612f3e61304e565b5b50919050565b612f4e826130ef565b810181811067ffffffffffffffff82111715612f6d57612f6c6130ac565b5b80604052505050565b6000612f8182612ec7565b91507fffffffffffffffffffffffffffffffffffffffffffffffffffffffffffffffff821415612fb457612fb3612ff0565b5b600182019050919050565b6000612fca82612ec7565b9150612fd583612ec7565b925082612fe557612fe461301f565b5b828206905092915050565b7f4e487b7100000000000000000000000000000000000000000000000000000000600052601160045260246000fd5b7f4e487b7100000000000000000000000000000000000000000000000000000000600052601260045260246000fd5b7f4e487b7100000000000000000000000000000000000000000000000000000000600052602260045260246000fd5b7f4e487b7100000000000000000000000000000000000000000000000000000000600052603260045260246000fd5b7f4e487b7100000000000000000000000000000000000000000000000000000000600052604160045260246000fd5b600080fd5b600080fd5b600080fd5b600080fd5b6000601f19601f8301169050919050565b7f77726f6e67206d696e742076616c756500000000000000000000000000000000600082015250565b7f4552433732313a207472616e7366657220746f206e6f6e20455243373231526560008201527f63656976657220696d706c656d656e7465720000000000000000000000000000602082015250565b7f6d696e74696e67206e6f7420656e61626c656400000000000000000000000000600082015250565b7f4f776e61626c653a206e6577206f776e657220697320746865207a65726f206160008201527f6464726573730000000000000000000000000000000000000000000000000000602082015250565b7f4552433732313a207472616e736665722066726f6d20696e636f72726563742060008201527f6f776e6572000000000000000000000000000000000000000000000000000000602082015250565b7f4552433732313a20746f6b656e20616c7265616479206d696e74656400000000600082015250565b7f4552433732313a207472616e7366657220746f20746865207a65726f2061646460008201527f7265737300000000000000000000000000000000000000000000000000000000602082015250565b7f4552433732313a20617070726f766520746f2063616c6c657200000000000000600082015250565b7f736f6c64206f7574000000000000000000000000000000000000000000000000600082015250565b7f4552433732313a2061646472657373207a65726f206973206e6f74206120766160008201527f6c6964206f776e65720000000000000000000000000000000000000000000000602082015250565b7f4552433732313a20617070726f76652063616c6c6572206973206e6f7420746f60008201527f6b656e206f776e6572206e6f7220617070726f76656420666f7220616c6c0000602082015250565b7f4552433732313a206d696e7420746f20746865207a65726f2061646472657373600082015250565b7f2e6a736f6e000000000000000000000000000000000000000000000000000000600082015250565b7f657863656564206d61782077616c6c6574000000000000000000000000000000600082015250565b7f4f776e61626c653a2063616c6c6572206973206e6f7420746865206f776e6572600082015250565b7f4552433732313a20696e76616c696420746f6b656e2049440000000000000000600082015250565b7f4552433732313a20617070726f76616c20746f2063757272656e74206f776e6560008201527f7200000000000000000000000000000000000000000000000000000000000000602082015250565b50565b7f546f6b656e20646f6573206e6f74206578697473000000000000000000000000600082015250565b7f4552433732313a2063616c6c6572206973206e6f7420746f6b656e206f776e6560008201527f72206e6f7220617070726f766564000000000000000000000000000000000000602082015250565b7f7769746864726177206661696c65640000000000000000000000000000000000600082015250565b61357081612e4b565b811461357b57600080fd5b50565b61358781612e6f565b811461359257600080fd5b50565b61359e81612e7b565b81146135a957600080fd5b50565b6135b581612ec7565b81146135c057600080fd5b5056fea2646970667358221220ee3cfe77ad44111cc5406c8be96cc939af4a97fd8c7e3755619a74a520dbd13e64736f6c63430008070033697066733a2f2f516d586870557867615436764d745a646971796d67723842336178446a66576132415436514e6e5a7576716e346b2f",
    "linkReferences": {},
    "deployedLinkReferences": {}
}